S0210000414B39373233414A2054756E696E672053797374656D2049562E737265631E
S11300000C94FB000C941A010C941A010C941A0120
S11300100C941A010C941A010C941A010C941A01F0
S11300200C941A010C941A010C941A010C941A01E0
S11300300C941A010C941A010C941A010C941A01D0
S11300400C941A010C941A010C941A010C941A01C0
S11300500C941A010C941A010C941A010C941A01B0
S11300600C941A010C941A010C941A010C941A01A0
S11300700C941A010C941A010C941A010C941A0190
S11300800C941A010C941A010C941A010C941A0180
S11300900C941A010C941A010C941A010C941B046C
S11300A00C941A010C941A010C941A010C941A0160
S11300B00C941A010C941A010C941A010C941A0150
S11300C00C941A010C941A010C941A010C941A0140
S11300D00C941A010C94D8030C941A010C941A0170
S11300E00C941A010C941A010C941A010C941A0120
S11300F00C941A016E616E00696E660000407A10FD
S1130100F35A00A0724E18090010A5D4E80000E8C4
S11301107648170000E40B54020000CA9A3B000022
S113012000E1F505000080969800000040420F00B1
S11301300000A08601000000102700000000E80372
S1130140000000006400000000000A00000000003D
S11301500100000000002C76D888DC674F0823DFFC
S1130160C1DFAE59E1B1B796E5E3E453C63AE651CF
S1130170997696E8E6C28426EB898C9B62ED407CF6
S11301806FFCEFBC9C9F40F2BAA56FA5F490055A92
S11301902AF75C936B6CF9676DC11BFCE0E40D47B7
S11301A0FEF520E6B500D0ED902E030094357705DA
S11301B00080841E080000204E0A000000C80C3392
S11301C03333330F986E12831141EF8D2114893B21
S11301D0E65516CFFEE6DB18D1844B381BF77C1DA1
S11301E0901DA4BBE424203284725E228100C9F1F4
S11301F024ECA1E53D2711241FBECFEFCDBFDFE7DF
S1130200DEBF12E4A0E0B0E4E2EFF9E100E00BBFEE
S113021002C007900D92AC35B107D9F723E4ACE5E1
S1130220B2E401C01D92A233B207E1F70E9431018A
S11302300C94F70C0C940000E0E0F4E080818068FA
S113024080838481806884832FE78AE196E021504B
S113025080409040E1F700C0000084818F77848360
S113026008950E9408040E943A040E949D010E947D
S1130270B0020E941C018BE890E00E945F040E947F
S11302803202789480910C43882379F010920C43C5
S11302908091114360911243815F0E9423028FEC8D
S11302A097E00197F1F700C0000080912C43813062
S11302B039F018F08230B9F13BC00E94A404E2CFB7
S11302C00E9440028091080484FDDCCF0E94D0018A
S11302D00E94AD02867089F0E0E0F4E084818068D9
S11302E084839FEF24E38CE0915020408040E1F729
S11302F000C0000084818F77848380912D438823FC
S113030029F00E9445020E94F10406C0E3E1F3E4EF
S1130310618182810E94BD028FEC97E00197F1F721
S113032000C00000AFCF0E94F3010E948405AACF51
S11303300E9432020E94A404A5CFE0E0F9E08FE01D
S1130340868381E0838382838583E0E0F4E0808197
S11303508062808384818F7D848387EC90E0019721
S1130360F1F700C000008481806284830895E0E096
S1130370F9E093E095839AEC97839091050996FFB1
S1130380FCCF9091050994FF04C083E08093040995
S11303900895809308098091050986FFFCCF08958C
S11303A084E00E94B7018BEC8093070920E030E0E1
S11303B016C0809105098823E4F780910809F901A2
S11303C0ED5EFC4B80832A30310521F487E0809375
S11303D00409089582E0809304092F5F3F4F2B3076
S11303E031053CF308958FE00E94B7018BEC8093B4
S11303F00709809105098823E4F78091050984FFA2
S113040018C01DC0809105098823E4F7809108096C
S1130410F901EE5DFC4B80832930310521F487E03E
S113042080930409089582E0809304092F5F3F4F6D
S113043002C020E030E02A30310524F3089583E03F
S1130440809304090895CF93C62F0E94B701C093E7
S113045008098091050986FFFCCF83E08093040995
S1130460CF9108956FEF88E10E94230260E087E155
S11304700E942302E0E0F4E080818F7E808308956F
S113048062E084E10E94230208958F929F92AF92CA
S1130490BF92CF92DF92EF92FF92CF93DF93C3E1AB
S11304A0D3E44B816A8189810E940B064B015C0174
S11304B04E816D818C810E940B066B017C016A85E3
S11304C089850E942906EC01C501B4010E949F069A
S11304D022E43CE74BEB58EB0E942B0760930D435F
S11304E070930E4380930F4390931043C701B6015A
S11304F00E949F0622E43CE74BEB58E30E942B0743
S113050060931E4370931F43809320439093214331
S1130510BE01DD0F880B990B0E949F0623E539E786
S11305204BE35DE30E942B0720E030E04FEA54E404
S11305300E94310660932E4370932F43809330437F
S113054090933143DF91CF91FF90EF90DF90CF9064
S1130550BF90AF909F908F9008958091134308951A
S113056083E88093B20080E480930204E0EAF6E03A
S113057081E48083128213820895E0EAF6E0908198
S11305809F7B9083607C628383838081806480838B
S113059008951092B34281E080935E4210925C42CF
S11305A00895109211430895E0915D42F0E0EE0F3A
S11305B0FF1FE050F04C208131818091B542909131
S11305C0B642FC01EE0FFF1FEE0FFF1F8E0F9F1FA1
S11305D0F901E80FF91F8481809311430895109263
S11305E012430895E0915D42F0E0EE0FFF1FE050EA
S11305F0F04C208131818091B5429091B642FC014A
S1130600EE0FFF1FEE0FFF1F8E0F9F1FF901E80F64
S1130610F91F84818093124381E38093B342089548
S113062010922C430895E0915D42F0E0EE0FFF1F1D
S1130630E050F04C208131818091B5429091B642D6
S1130640FC01EE0FFF1FEE0FFF1F8E0F9F1FF9011E
S1130650E80FF91F848180935C42089590912D43A3
S113066081E0892780935E4208958091B34280930C
S11306700C4380915E4280932D4380915C42809331
S11306802C4308952091124380E1289F9001112466
S1130690E0915D42F0E0EE0FFF1FE050F04C40812E
S11306A051818091B5429091B642FC01EE0FFF1F3B
S11306B0EE0FFF1F8E0F9F1FFA01E80FF91F8481B1
S11306C0282B2093124381E38093B3420E94350385
S11306D00895CF93DF931092B5421092B6420AC0A8
S11306E02091B5423091B6422F5F3F4F2093B542DF
S11306F03093B642C82FD0E0FE01EE0FFF1FE0504A
S1130700F04C408151812091B5423091B642F901BB
S1130710EE0FFF1FEE0FFF1F2E0F3F1FFA01E20F18
S1130720F31F9081961789F02091B5423091B6421B
S1130730F901EE0FFF1FEE0FFF1F2E0F3F1FFA01EF
S1130740E20FF31F90819C3259F66A3011F06D303C
S113075019F480935D4229C08091B5429091B642CC
S11307609C01220F331F220F331F820F931FFA01A4
S1130770E80FF91F0280F381E02D0995CC0FDD1FEE
S1130780C050D04C288139818091B5429091B642B5
S1130790FC01EE0FFF1FEE0FFF1F8E0F9F1FF901CD
S11307A0E80FF91F818180935D42DF91CF91089515
S11307B01F920F920FB60F9211240BB60F922F9324
S11307C03F934F935F936F937F938F939F93AF93D5
S11307D0BF93EF93FF938091600880930B436091E4
S11307E00B4380915D420E946903FF91EF91BF9199
S11307F0AF919F918F917F916F915F914F913F91B5
S11308002F910F900BBE0F900FBE0F901F90189555
S1130810E0E6F8E08BE890E08087918780E88683C3
S113082083E08783858180688583E0E2F4E08081CA
S11308308D7F808308951F920F920FB60F9211241B
S11308400BB60F928F93EF93FF938091B442E0E441
S1130850F8E0828381E08093104085818F7D8583D9
S1130860FF91EF918F910F900BBE0F900FBE0F90E1
S11308701F901895E0EEF5E082818061828380917B
S11308800E4090910F40E0E4F8E08087918780E487
S1130890868383E08783E0EAF4E08081806180835B
S11308A00895909110409923E1F3109210408093A1
S11308B0B442E0E4F8E08581806285830895209164
S11308C00E4030910F4023383640C1F48A389105E8
S11308D0A9F48CE70E9451048DE20E9451048CE734
S11308E00E94510482E10E9451048AE890E08093BE
S11308F00E4090930F400E943A04089520910E40B8
S113090030910F402A383105C1F483389640A9F458
S11309108CE70E9451048DE20E9451048CE70E94EE
S113092051048DE00E94510483E896E080930E40C8
S113093090930F400E943A0408958CE70E9451045A
S113094088E00E9451040895CF93DF938CE70E94BE
S113095051048DE20E94510485E1ECE4F1E4A7EB3B
S1130960B2E401900D928A95E1F785E1E1E6F1E4C4
S1130970ACECB2E401900D928A95E1F785E1E6E7EB
S1130980F1E4A1EEB2E401900D928A95E1F785E1DC
S1130990EBE8F1E4A6EFB2E401900D928A95E1F759
S11309A0C0E0D0E00FC0FE01E954FD4B80818823F4
S11309B041F00E94510487EE93E00197F1F700C0E3
S11309C000002196C435D10574F39FEF24E38CE035
S11309D0915020408040E1F700C00000DF91CF91AA
S11309E00895CF93DF938CE70E9451048DE20E9417
S11309F05104E3E1F3E42181928183811F922F93D7
S1130A001F929F931F928F9380EA91E49F938F93F9
S1130A101F92C5E1CF9387EB92E49F938F930E943B
S1130A20620C809110438F9380910F438F93809138
S1130A300E438F9380910D438F9387EB91E49F93A3
S1130A408F931F92CF938CEC92E49F938F930E9489
S1130A50620C809121438F93809120438F938091E6
S1130A601F438F9380911E438F938BEC91E49F934C
S1130A708F931F92CF9381EE92E49F938F930E9462
S1130A80620C8DB79EB780968DBF9EBF8091314317
S1130A908F93809130438F9380912F438F938091D4
S1130AA02E438F938FED91E49F938F931F92CF9357
S1130AB086EF92E49F938F930E94620C8DB79EB74A
S1130AC00A968DBF9EBFC0E0D0E00FC0FE01E9547E
S1130AD0FD4B8081882341F00E94510487EE93E00E
S1130AE00197F1F700C000002196C435D10574F3D5
S1130AF09FEF24E38CE0915020408040E1F700C058
S1130B000000DF91CF9108951F93CF93DF938CE77B
S1130B100E9451048DE20E945104C2E2D3E4888110
S1130B201F928F9383EF91E49F938F931F9215E10C
S1130B301F938FE592E49F938F930E94620C2B8105
S1130B409A8189811F922F931F929F931F928F9353
S1130B508BE092E49F938F931F921F9384E792E418
S1130B609F938F930E94620C2E819D818C811F9292
S1130B702F931F929F931F928F9386E292E49F93E9
S1130B808F931F921F9389E892E49F938F930E94FF
S1130B90620C298598858F814DB75EB7405E5F4FA3
S1130BA04DBF5EBF1F922F931F929F931F928F93EF
S1130BB081E492E49F938F931F921F938EE992E4B2
S1130BC09F938F930E94620C8DB79EB70C968DBF36
S1130BD09EBFC0E0D0E00FC0FE01E15AFD4B808112
S1130BE0882341F00E94510487EE93E00197F1F7C6
S1130BF000C000002196C435D10574F39FEF24E3AF
S1130C004CE0915020404040E1F700C00000DF91EB
S1130C10CF911F9108950F931F93062F50E060E02A
S1130C2070E0BA015527442710E020E030E0322F6D
S1130C30212F102F0027402B512B622B732B8A015D
S1130C409B01082BC901B80187FD9F6F1F910F916C
S1130C50089570E0762F66279B01282BC90108951B
S1130C605058BB27AA270E9448060C94F1060E94FC
S1130C70E30638F00E94EA0620F039F49F3F19F4A5
S1130C8026F40C94E0060EF4E095E7FB0C94DA06E7
S1130C90E92F0E94020758F3BA1762077307840703
S1130CA0950720F079F4A6F50C9424070EF4E0954A
S1130CB00B2EBA2FA02D0B01B90190010C01CA0112
S1130CC0A0011124FF27591B99F0593F50F4503EBD
S1130CD068F11A16F040A22F232F342F4427585FAF
S1130CE0F3CF469537952795A795F0405395C9F7C7
S1130CF07EF41F16BA0B620B730B840BBAF091507F
S1130D00A1F0FF0FBB1F661F771F881FC2F70EC01D
S1130D10BA0F621F731F841F48F4879577956795F0
S1130D20B795F7959E3F08F0B0CF9395880F08F0DC
S1130D309927EE0F979587950895E89409C097FB36
S1130D403EF490958095709561957F4F8F4F9F4F9E
S1130D509923A9F0F92F96E9BB279395F6958795E2
S1130D6077956795B795F111F8CFFAF4BB0F11F4A5
S1130D7060FF1BC06F5F7F4F8F4F9F4F16C088234C
S1130D8011F096E911C0772321F09EE8872F762F82
S1130D9005C0662371F096E8862F70E060E02AF0C3
S1130DA09A95660F771F881FDAF7880F96958795AF
S1130DB097F9089597F99F6780E870E060E00895D7
S1130DC09FEF80EC089500240A941616170618065F
S1130DD00906089500240A9412161306140605063B
S1130DE00895092E0394000C11F4882352F0BB0FCC
S1130DF040F4BF2B11F460FF04C06F5F7F4F8F4F2F
S1130E009F4F089557FD9058440F551F59F05F3F69
S1130E1071F04795880F97FB991F61F09F3F79F018
S1130E2087950895121613061406551FF2CF46959A
S1130E30F1DF08C0161617061806991FF1CF86951C
S1130E407105610508940895E894BB276627772700
S1130E50CB0197F908950E943E070C94F1060E9475
S1130E60E30638F00E94EA0620F0952311F00C9472
S1130E70DA060C94E00611240C9425070E9402075C
S1130E8070F3959FC1F3950F50E0551F629FF001D9
S1130E90729FBB27F00DB11D639FAA27F00DB11DF2
S1130EA0AA1F649F6627B00DA11D661F829F22277B
S1130EB0B00DA11D621F739FB00DA11D621F839F02
S1130EC0A00D611D221F749F3327A00D611D231FD8
S1130ED0849F600D211D822F762F6A2F11249F5726
S1130EE050409AF0F1F088234AF0EE0FFF1FBB1F29
S1130EF0661F771F881F91505040A9F79E3F5105E8
S1130F0080F00C94DA060C9425075F3FE4F3983ED6
S1130F10D4F3869577956795B795F795E7959F5F91
S1130F20C1F7FE2B880F911D9695879597F9089523
S1130F302F923F924F925F926F927F928F929F92E5
S1130F40AF92BF92CF92DF92EF92FF920F931F93D3
S1130F50CF93DF93CDB7DEB76097CDBFDEBF7C0103
S1130F601B016A01FC0116821782838181FF44C33D
S1130F709E012F5F3F4F3901F7019381F10193FDEA
S1130F80859193FF81911F01882309F431C3853230
S1130F9039F493FD859193FF81911F01853239F4D2
S1130FA0B70190E00E94260C56016501E5CF10E0E0
S1130FB0512C912CFFE1F915D8F08B3279F038F4EB
S1130FC0803279F08332A1F4F92DF0612EC08D3294
S1130FD061F0803369F4292D21602DC0392D3260F0
S1130FE0932E892D8460982E2AC0E92DE86015C0BF
S1130FF097FC2DC020ED280F2A3088F496FE06C0F9
S11310003AE0139F200D1124122F19C08AE0589E34
S1131010200D1124522EE92DE0629E2E10C08E3236
S113102031F496FCE5C2F92DF0649F2E08C08C368D
S113103021F4292D2068922E02C0883641F4F10152
S113104093FD859193FF81911F018111B3CF9BEB98
S1131050980F933020F4992D9061805E07C09BE92E
S1131060980F933008F066C1992D9F7E96FF16E085
S11310709F73992E853619F49064992E08C086368C
S113108021F4392F3068932E02C01111115097FEAC
S113109007C01C3350F444244394410E27E00BC092
S11310A0183038F027E017E005C027E09CE3492E0C
S11310B002C0212F412C560184E0A80EB11CF60178
S11310C06081718182819381042DA3010E94380B78
S11310D06C01F981FC87F0FF02C0F3FF06C091FCAC
S11310E006C092FE06C000E205C00DE203C00BE29A
S11310F001C000E08C858C7019F001115AC29BC2AA
S113110097FE10C04C0CFC85F4FF04C08A81813327
S113111009F44A94141474F528E0241578F588E049
S1131120482E2CC096FC2AC0812F90E08C159D057A
S11311309CF03CEFC3163FEFD30674F0892D806812
S1131140982E0AC0E2E0F0E0EC0FFD1FE10FF11D64
S11311508081803319F411501111F4CF97FE0EC021
S113116044244394410E812F90E0C816D9062CF4F0
S11311701C1904C04424439401C010E097FE06C027
S11311801C141D0434F4C601019605C085E090E0EA
S113119002C081E090E001110196112331F0212F6A
S11311A030E02F5F3F4F820F931F252D30E08217D1
S11311B0930714F4581A01C0512C892D897049F4ED
S11311C0552039F0B70180E290E00E94260C5A9431
S11311D0F7CF002329F0B701802F90E00E94260C5E
S11311E093FC09C0552039F0B70180E390E00E94D8
S11311F0260C5A94F7CF97FE4CC04601D7FE02C086
S1131200812C912CC60188199909F301E80FF91F63
S1131210ED87FE879601241931092F87388B012F1A
S113122010E01195019511093FEF8316930629F4F7
S1131230B7018EE290E00E94260CC814D9044CF049
S11312408F8598898815990524F4ED85FE8581811B
S113125001C080E3F1E08F1A91082D853E852F5F50
S11312603F4F2D873E87801691062CF0B70190E002
S11312700E94260CD9CFC814D90441F49A8196331C
S113128020F4953319F43C8534FF81E3B70190E0F1
S11312904EC08A81813319F09C859F7E9C87B7015B
S11312A090E00E94260C111105C094FC18C085E63C
S11312B090E017C0B7018EE290E00E94260C1E5FFA
S11312C082E001E0080FF301E80FF11D8081B7010E
S11312D090E00E94260C802F0113F3CFE6CF85E423
S11312E090E0B7010E94260CD7FC06C0C114D104BB
S11312F041F4EC85E4FF05C0D194C194D1088DE29A
S113130001C08BE2B70190E00E94260C80E32AE042
S1131310C216D1042CF08F5FFAE0CF1AD108F7CFB0
S1131320B70190E00E94260CB701C601C0960E9446
S1131330260C54C1833631F0833779F0833509F0B4
S113134056C020C0560132E0A30EB11CF6018081C4
S1131350898301E010E0630112C05601F2E0AF0E90
S1131360B11CF601C080D18096FE03C0612F70E0ED
S113137002C06FEF7FEFC6010E941B0C8C01F92D98
S1131380FF7714C0560122E0A20EB11CF601C08002
S1131390D18096FE03C0612F70E002C06FEF7FEF33
S11313A0C6010E94100C8C01F92DF0689F2EF3FDEC
S11313B01AC0852D90E008171907A8F4B70180E238
S11313C090E00E94260C5A94F4CFF60197FC859184
S11313D097FE81916F01B70190E00E94260C511095
S11313E05A94015011090115110579F7F7C0843693
S11313F011F0893661F5560197FE09C024E0A20E6A
S1131400B11CF60160817181828193810AC0F2E08E
S1131410AF0EB11CF60160817181072E000C880BA0
S1131420990BF92DFF769F2E97FF09C09095809513
S1131430709561957F4F8F4F9F4FF0689F2E2AE0E4
S113144030E0A3010E94990CC82EC6183FC0092D94
S1131450853721F40F7E2AE030E01DC0097F8F36E6
S113146091F018F4883559F0C3C0803719F08837E3
S113147011F0BEC0006104FF09C0046007C094FEFF
S113148008C0066006C028E030E005C020E130E076
S113149002C020E132E0560107FF09C084E0A80E33
S11314A0B11CF601608171818281938108C0F2E0F0
S11314B0AF0EB11CF6016081718180E090E0A30160
S11314C00E94990CC82EC6180F77902E96FE0BC05A
S11314D0092D0E7FC11650F494FE0AC092FC08C078
S11314E0092D0E7E05C0DC2C092D03C0DC2C01C0A7
S11314F0D12E04FF0DC0FE01EC0DF11D808180335F
S113150011F4097E09C002FF06C0D394D39404C029
S1131510802F867809F0D39403FD11C000FF06C024
S11315201C2DD51480F4150D1D190DC0D51458F4B7
S1131530B70180E290E00E94260CD394F7CFD51433
S113154010F45D1801C0512C04FF10C0B70180E3F2
S113155090E00E94260C02FF17C001FD03C088E73B
S113156090E002C088E590E0B7010CC0802F867837
S113157059F001FF02C08BE201C080E207FD8DE259
S1131580B70190E00E94260CC11638F4B70180E33D
S113159090E00E94260C1150F7CFCA94F301EC0D91
S11315A0F11D8081B70190E00E94260CC110F5CF97
S11315B015C0F4E0F51560F584E0581A93FE1FC0D9
S11315C0011127C02C8523FF2AC004EF10E0392D18
S11315D03071932EF8018491811124C0552009F4AF
S11315E0E4CCB70180E290E00E94260C5A94F6CF36
S11315F0F7018681978126C08FEF9FEF23C0B70143
S113160080E290E00E94260C5A945110F8CFD8CF73
S1131610512CB701802F90E00E94260CD3CF08EF05
S113162010E0D5CF91108052B70190E00E94260CB3
S11316300F5F1F4FCFCF23E0251510F483E0BDCFFC
S1131640512CC0CF6096CDBFDEBFDF91CF911F91EB
S11316500F91FF90EF90DF90CF90BF90AF909F904D
S11316608F907F906F905F904F903F902F90089550
S1131670283008F027E03327DA01990F311D87FD60
S1131680916000966105710539F432602E5F3D93D7
S113169030E32A95E1F708959F3F30F080387105D3
S11316A0610509F03C5F3C5F3D93913008F0806830
S11316B0911DDF93CF931F930F93FF92EF92192FF6
S11316C0987F9695E92F96959695E90FFF27EA5A04
S11316D0FE4F99273327EE24FF24A701E701059045
S11316E00894079428F4360FE71EF81E491F511D6D
S11316F0660F771F881F991F0694A1F7059007941A
S113170028F4E70EF81E491F561FC11D770F881FC6
S1131710991F661F0694A1F70590079428F4F80E04
S1131720491F561FC71FD11D880F991F661F771F9A
S11317300694A1F70590079420F4490F561FC71F7C
S1131740D81F990F661F771F881F0694A9F78491E5
S11317501095177041F0D695C79557954795F7940E
S1131760E7941A95C1F7ECEFF0E0689415901591A1
S113177035916591959105907FE27395E118F10A91
S1131780430B560BC90BD009C0F7E10CF11E431FE4
S1131790561FC91FD01D7EF4703311F48A95E6CF0D
S11317A0E894015030F0080F0AF40027021708F4F7
S11317B0202F2395022F7A3328F079E37D932A95FD
S11317C0E9F710C07D932A9589F606949795679555
S11317D0379517951794E118F10A430B560BC90B6B
S11317E0D00998F023957E9173957A3308F070E3CD
S11317F07C932013B8F77E9170617D9330F08395CC
S113180071E37D9370E32A95E1F71124EF90FF9043
S11318100F911F91CF91DF91992787FD909508959E
S1131820FC010590615070400110D8F780959095A7
S11318308E0F9F1F0895FC016150704001900110AC
S1131840D8F7809590958E0F9F1F08950F931F933F
S1131850CF93DF93FB01238121FD03C08FEF9FEF23
S11318602CC022FF16C0468157812481358142173E
S1131870530744F4A081B1819D012F5F3F4F208322
S113188031838C93268137812F5F3F4F26833783A3
S113189014C08B01EC01FB010084F185E02D099556
S11318A0892BE1F6D80116968D919C911797019694
S11318B016968D939C931797CE01DF91CF911F912C
S11318C00F9108950F931F93CF93DF93CDB7DEB796
S11318D02E97CDBFDEBF0D891E898F89988D26E096
S11318E02C8309831A8397FF02C080E090E8019754
S11318F08D839E83AE01455E5F4F698D7A8DCE01E7
S113190001960E9498074D815E8157FD0AC02F8180
S11319103885421753070CF49A01F801E20FF31FBC
S113192010822E96CDBFDEBFDF91CF911F910F9114
S11319300895FA01AA27283051F1203181F1E89461
S11319406F936E7F6E5F7F4F8F4F9F4FAF4FB1E0AE
S11319503ED0B4E03CD0670F781F891F9A1FA11DA9
S1131960680F791F8A1F911DA11D6A0F711D811DAA
S1131970911DA11D20D009F468943F912AE0269F6F
S113198011243019305D3193DEF6CF010895462FCE
S11319904770405D4193B3E00FD0C9F7F6CF462FAF
S11319A04F70405D4A3318F0495D31FD4052419318
S11319B002D0A9F7EACFB4E0A695979587957795D5
S11319C06795BA95C9F700976105710508959B015C
S11319D0AC010A2E06945795479537952795BA95E5
S11319E0C9F7620F731F841F951FA01D0895F894F3
S10519F0FFCF23
S11319F23841E8400141D94084402A4011408306DD
S1131A02014302D10200500110030044062E0300D8
S1131A120D003503002C00C90200300642030031D8
S1131A22064203013206420302330642030334062A
S1131A3242030435064203053606420306370642CC
S1131A4203073806420308390642030941064203E2
S1131A520A420642030B430642030C440642030DA8
S1131A62450642030E460642030F0D003503002CC1
S1131A7200C902003005F202003105F2020132050A
S1131A82F202023305F202033405F202043505F2CE
S1131A9202053605F202063705F202073805F2029C
S1131AA2083905F202094105F2020A4205F2020B63
S1131AB24305F2020C4405F2020D4505F2020E46FC
S1131AC205F2020F2C00C902003D04EF020043029A
S1131AD2D102002C00C902003006130300310613A0
S1131AE20301320613030250011003002C00C90241
S1131AF2003003D402003103D402013203D40202BF
S1131B023303D402033403D402043503D402053666
S1131B1203D402063703D402073803D40208390374
S1131B22D402092C00C902004302D1020050011060
S1131B32030044062E03002C00C9020020414B3945
S1131B42373233414A2054656D702F43303220209E
S1131B5200202D2D2D2D2053656E736F72202D2D97
S1131B622D2D20202000202020537072696E6720C2
S1131B7245534520333831202020004A494E20590C
S1131B822E204348454E2C204552494320575500A8
S1131B92495231203D2030782530325820253032C8
S1131BA258202530325800495231203D2025372E05
S1131BB23266206D56202020202000495232203DDA
S1131BC22025372E3266206D5620202020200056F4
S1131BD24620203D2025372E3266206D56202020B7
S1131BE2202000414B3937323320636E746C20203D
S1131BF22C2043303D25303258200043313D2530DE
S1131C0232582C2043323D253032582C2043333D68
S1131C1225303258200043343D253032582C20439D
S1131C22353D253032582C2043363D25303258205C
S1131C320043373D253032582C2043383D2530327D
S10F1C42582C2043393D25303258200036
S9030000FC
