:020000020000FC
:1000000003E00093B00004E0009393040AE000933F
:1000100002060BE00093080601E00093000603E8E7
:100020000093680806E00093690803E000936708FE
:1000300000E400936608209A8398ACD0B0D029D110
:10004000A9D001E000930A0600910D0600FFFCCF45
:100050000091100610911106AAD0C1D0C5D00BD0C6
:10006000DCD0C2D021D0D9D0BFD02DD0D6D0BCD0FA
:100070004AD00FD1E5CF42E4D4D049E4D2D04AE30C
:10008000D0D024E017FF40E317FD41E3CAD0110FA1
:100090002A95C1F728E007FF40E307FD41E3C1D0FF
:1000A000000F2A95C1F7089548E4BBD048E7B9D0BE
:1000B0004AE3B7D0312F212F9CD0A3D0302F202F4F
:1000C00098D09FD0089546E5ACD04FE6AAD04AE339
:1000D000A8D0BDD0282F95D040930640372F272F8A
:1000E00088D0409305408DD040930440362F262F72
:1000F00080D04093034085D0409302404DE691D09C
:1001000046E58FD0089544E58CD04DE68AD04AE389
:1001100088D024EF31E0020B130B08F006C04DE24B
:1001200080D0009521E0021F109591D0282F69D032
:10013000372F272F5ED065D0362F262F5AD04EE28C
:1001400070D05FD043E46DD00895202045534532F0
:1001500038302046616C6C20323032340D0A202059
:100160002020204E616D653A204A696E0D0A2020DC
:10017000204C61626F7261746F72792031300D0AA8
:100180002054656D70657261747572652053656E7B
:10019000736F72004CE745D04DE243D00895EAE416
:1001A000F1E04591403011F03CD0FBCF089524ECB4
:1001B00039E03ED0889424E0469537952A95E1F7BA
:1001C000032F142F089525E030E032D0889443E0C7
:1001D000369527954A95E1F7022F132F089500933E
:1001E000004010930140089500910040109101409B
:1001F00008953695369536953695432F07D011D00C
:1002000008952F70422F02D00CD008954A3010F478
:10021000406308954064495008954DE002D04AE09B
:1002200000D05091640855FFFCCF409362080895B8
:100230005527442760E13695279510F4400F511F4C
:1002400057954795379527956A95B9F7089530E002
:100250002AE00CD06E2D0AD0E2946E2907D07E2DB4
:1002600005D0E2947E2902D08E2D0895EE24FF1849
:1002700041E1001F111F4A9509F40895EE1CFF1C6F
:10028000E21AF30A20F4E20EF31E8894F2CF0894E7
:10029000F0CFE2E7F4E1DFEFDA95F1F73197D9F744
:0202A0000895BF
:00000001FF
