:020000020000FC
:1000000003E00093B00004E0009393040AE000933F
:1000100002060BE00093080601E00093000603E8E7
:100020000093680806E00093690803E000936708FE
:1000300000E400936608209A839887D08BD004D17F
:1000400084D001E000930A0600910D0600FFFCCF6A
:10005000009110061091110685D09CD0A0D00BD035
:10006000B7D09DD021D0B4D09AD02DD0B1D097D0D8
:100070004AD0EAD0E5CF42E4AFD049E4ADD04AE37C
:10008000ABD024E017FF40E317FD41E3A5D0110FEB
:100090002A95C1F728E007FF40E307FD41E39CD024
:1000A000000F2A95C1F7089548E496D048E794D008
:1000B0004AE392D0312F212F77D07ED0302F202FBE
:1000C00073D07AD0089546E587D04FE685D04AE3CD
:1000D00083D098D0282F70D040933F40372F272FC0
:1000E00063D040933E4068D040933D40362F262F4A
:1000F0005BD040933C4060D040933B404DE66CD099
:1001000046E56AD0089544E567D04DE665D04AE3F8
:1001100063D024EF31E0020B130B08F006C04DE270
:100120005BD0009521E0021F10956CD0282F44D0A1
:10013000372F272F39D040D0362F262F35D04EE2FB
:100140004BD03AD043E448D008954CE745D04DE237
:1001500043D00895E0E0F0E84591403011F03CD004
:10016000FBCF089524EC39E03ED0889424E04695F6
:1001700037952A95E1F7032F142F089525E030E0F5
:1001800032D0889443E0369527954A95E1F7022FBF
:10019000132F08950093394010933A400895009129
:1001A000394010913A4008953695369536953695F2
:1001B000432F07D011D008952F70422F02D00CD0BA
:1001C00008954A3010F440630895406449500895FA
:1001D0004DE002D04AE000D05091640855FFFCCFBA
:1001E0004093620808955527442760E13695279586
:1001F00010F4400F511F57954795379527956A95ED
:10020000B9F7089530E02AE00CD06E2D0AD0E294C0
:100210006E2907D07E2D05D0E2947E2902D08E2D46
:100220000895EE24FF1841E1001F111F4A9509F4BB
:100230000895EE1CFF1CE21AF30A20F4E20EF31EEE
:100240008894F2CF0894F0CFE2E7F4E1DFEFDA959B
:08025000F1F73197D9F7089589
:00000001FF
