:020000020000FC
:040000000C9432002A
:100060000C94620003E80093680806E000936908B6
:100070000BE80093280800E00093290803E00093B0
:1000800067080093270800E40093660800E80093DF
:100090002608209A4198009151040260009351046F
:1000A0007894C0E0D8E20091200809930A3009F062
:1000B000FACFC0E0D8E20991009362080A3089F3D0
:1000C000FACFEFCFF8940F930FB70F930091490435
:0E00D00001FDF1DF0F910FBF0F91789418958D
:00000001FF
