:020000020000FC
:040000000C94480014
:10008C000C946B0003E80093680806E00093690881
:10009C0003E00093670800E400936608209A8098B8
:1000AC0000E00093002800919004026000939004FB
:1000BC0078943CE72AD03DE228D0109100281BD040
:1000CC00322F23D0312F21D0F4CFF8940F930FB7C8
:1000DC000F930091890400FD05D00F910FBF0F9174
:1000EC00789418950091002803950093002801E05E
:1000FC00009389040895212F2695269526952695FB
:10010C002F7020631F70106308954091640845FFA1
:08011C00FCCF30936208089546
:00000001FF
