:020000020000FC
:1000000003E00093B00004E0009393040AE000933F
:1000100002060BE00093080601E00093000603E8E7
:100020000093680806E00093690803E000936708FE
:1000300000E400936608209A839887D08BD005D17E
:1000400084D001E000930A0600910D0600FFFCCF6A
:10005000009110061091110686D09DD0A1D00BD032
:10006000B8D09ED021D0B5D09BD02DD0B2D098D0D2
:100070004AD0EBD0E5CF42E4B0D049E4AED04AE379
:10008000ACD024E017FF40E317FD41E3A6D0110FE9
:100090002A95C1F728E007FF40E307FD41E39DD023
:1000A000000F2A95C1F7089548E497D048E795D006
:1000B0004AE393D0312F212F78D07FD0302F202FBB
:1000C00074D07BD0089546E588D04FE686D04AE3C9
:1000D00084D099D0282F71D040933F40372F272FBD
:1000E00064D040933E4069D040933D40362F262F48
:1000F0005CD040933C4061D040933B404DE66DD096
:1001000046E56BD0089544E568D04DE666D04AE3F5
:1001100064D024EF31E0020B130B08F006C04DE26F
:100120005CD0009521E0021F10956DD0282F45D09E
:10013000372F272F3AD041D0362F262F36D04EE2F8
:100140004CD03BD043E449D008954CE746D04DE233
:1001500044D00895F0E4E0E00591002319F0402F29
:100160003CD0FACF089524EC39E03ED0889424E0C6
:10017000469537952A95E1F7032F142F089525E02A
:1001800030E032D0889443E0369527954A95E1F7E0
:10019000022F132F08950093394010933A40089589
:1001A0000091394010913A4008953695369536952C
:1001B0003695432F07D011D008952F70422F02D0CB
:1001C0000CD008954A3010F44063089540644950BB
:1001D00008954DE002D04AE000D05091640855FFE8
:1001E000FCCF4093620808955527442760E1369577
:1001F000279510F4400F511F579547953795279530
:100200006A95B9F7089530E02AE00CD06E2D0AD037
:10021000E2946E2907D07E2D05D0E2947E2902D08B
:100220008E2D0895EE24FF1841E1001F111F4A95FD
:1002300009F40895EE1CFF1CE21AF30A20F4E20E02
:10024000F31E8894F2CF0894F0CFE2E7F4E1DFEFF9
:0A025000DA95F1F73197D9F7089518
:00000001FF
